:020000040800F2
:10000000300700204D0200085B0200085D02000876
:100010005F0200086102000863020008000000009F
:100020000000000000000000000000006502000861
:100030006702000800000000690200086B02000867
:100040006D0200086D0200086D0200086D020008D4
:100050006D0200086D0200086D0200086D020008C4
:100060006D0200086D0200086D0200086D020008B4
:100070006D0200086D0200086D0200086D020008A4
:100080006D0200086D0200086D0200086D02000894
:100090006D0200086D0200086D0200086D02000884
:1000A0006D0200086D0200086D0200086D02000874
:1000B0006D0200086D0200086D0200086D02000864
:1000C0006D0200086D0200086D0200086D02000854
:1000D0006D020008FD0200086D0200086D020008B4
:1000E0006D0200086D0200086D0200086D02000834
:1000F0006D0200086D0200086D0200086D02000824
:100100006D0200086D0200086D0200086D02000813
:100110006D0200086D0200086D0200086D02000803
:100120006D0200086D0200086D0200086D020008F3
:100130006D0200086D0200086D0200086D020008E3
:100140006D0200086D0200086D0200086D020008D3
:100150006D0200086D0200086D0200086D020008C3
:100160006D0200086D0200086D0200086D020008B3
:100170006D0200086D0200086D020008000000001A
:100180006D0200086D0200086D0200086D02000893
:100190006D0200086D0200086D0200086D02000883
:1001A0006D0200086D0200086D02000800F002F800
:1001B00000F03CF80AA090E8000C82448344AAF1C5
:1001C0000107DA4501D100F031F8AFF2090EBAE8C3
:1001D0000F0013F0010F18BFFB1A43F0010318477B
:1001E000B0010000D0010000103A24BF78C878C1E7
:1001F000FAD8520724BF30C830C144BF04680C602D
:10020000704700000023002400250026103A28BF74
:1002100078C1FBD8520728BF30C148BF0B60704778
:100220001FB500F0AFF81FBD10B510BD00F037F8D6
:100230001146FFF7F5FF00F0A3F800F055F803B4FE
:10024000FFF7F2FF03BC00F099F800000B480168CB
:1002500041F4700101600A480047FEE7FEE7FEE74F
:10026000FEE7FEE7FEE7FEE7FEE7FEE7FEE700004B
:1002700004480549054A064B7047000088ED00E038
:10028000AD010008300100203007002030030020BD
:1002900030030020704770477047704770477546BD
:1002A00000F028F8AE4605006946534620F00700E6
:1002B000854618B020B5FFF7DBFFBDE820404FF0C2
:1002C00000064FF000074FF000084FF0000B21F040
:1002D0000701AC46ACE8C009ACE8C009ACE8C0090D
:1002E000ACE8C0098D4670470446AFF30080204655
:1002F000FFF7A5FF00487047D00000201C4909689F
:1003000001F0200109B31A494968C8B2194909889E
:1003100001F40041C9B91749098801F4804161B16C
:100320000A2803D00021134A118020E011490988CE
:1003300041F400410F4A118019E00D2806D10D4902
:10034000098841F480410B4A118010E0094909886D
:10035000C1F30D01084A505406490988491C054A51
:10036000118011460988C72901DD002111807047DD
:1003700000100140040000200800002000BF70476A
:10038000002070474FF04070E1EE100A7047000007
:10039000B00300080000002008000000E801000889
:1003A000B803000808000020280700000402000825
:0803B000000000000000000045
:04000005080001AD41
:00000001FF
