:020000040800F2
:10000000700700204D020008C1040008B904000870
:10001000BD040008F5020008C50500080000000046
:10002000000000000000000000000000C5040008FF
:10003000F902000800000000C3040008C70400081B
:1000400067020008670200086702000867020008EC
:1000500067020008670200086702000867020008DC
:1000600067020008670200086702000867020008CC
:1000700067020008670200086702000867020008BC
:1000800067020008670200086702000867020008AC
:10009000670200086702000867020008670200089C
:1000A000670200086702000867020008670200088C
:1000B000670200086702000867020008670200087C
:1000C000670200086702000867020008670200086C
:1000D000670200084505000867020008670200087B
:1000E000670200086702000867020008670200084C
:1000F000670200086702000867020008670200083C
:10010000670200086702000867020008670200082B
:10011000670200086702000835050008670200084A
:10012000670200086702000867020008670200080B
:1001300067020008670200086702000867020008FB
:1001400067020008670200086702000867020008EB
:1001500067020008670200086702000867020008DB
:1001600067020008670200086702000867020008CB
:10017000670200086702000867020008000000002C
:1001800067020008670200086702000867020008AB
:10019000670200086702000867020008670200089B
:1001A00067020008670200086702000800F002F812
:1001B00000F03CF80AA090E8000C82448344AAF1C5
:1001C0000107DA4501D100F031F8AFF2090EBAE8C3
:1001D0000F0013F0010F18BFFB1A43F0010318477B
:1001E000FC0300001C040000103A24BF78C878C14A
:1001F000FAD8520724BF30C830C144BF04680C602D
:10020000704700000023002400250026103A28BF74
:1002100078C1FBD8520728BF30C148BF0B60704778
:100220001FB500F0D5F91FBD10B510BD00F033F8B3
:100230001146FFF7F5FF00F0C9F900F051F803B4DB
:10024000FFF7F2FF03BC00F0BFF900000948804748
:1002500009480047FEE7FEE7FEE7FEE7FEE7FEE7A8
:10026000FEE7FEE7FEE7FEE704480549054A064BC0
:1002700070470000D1040008AD01000870010020A3
:100280007007002070030020700300207047704743
:10029000704770477047754600F028F8AE46050075
:1002A0006946534620F00700854618B020B5FFF791
:1002B000DBFFBDE820404FF000064FF000074FF095
:1002C00000084FF0000B21F00701AC46ACE8C00974
:1002D000ACE8C009ACE8C009ACE8C0098D4670477D
:1002E0000446AFF300802046FFF7A9FF004870479F
:1002F0001001002000BFFEE77047000002480068C0
:10030000401C014908607047080000207047704792
:10031000704710B5044620680069C0F34000D8B1AA
:100320002068C068C0F34000B0B16FF002002168DF
:100330000861012020762068806900F0030018B170
:100340002046FFF7E5FF05E0204600F0ADF8204627
:1003500000F0ABF80020207620680069C0F3800030
:10036000D8B12068C068C0F38000B0B16FF004005D
:1003700021680861022020762068806900F44070BE
:1003800018B12046FFF7C4FF05E0204600F08CF8C6
:10039000204600F08AF80020207620680069C0F32B
:1003A000C000D8B12068C068C0F3C000B0B16FF021
:1003B000080021680861042020762068C06900F0E8
:1003C000030018B12046FFF7A3FF05E0204600F028
:1003D0006BF8204600F069F800202076206800695C
:1003E000C0F30010D8B12068C068C0F30010B0B1ED
:1003F0006FF0100021680861082020762068C0692D
:1004000000F4407018B12046FFF782FF05E0204657
:1004100000F04AF8204600F048F8002020762068D6
:10042000006900F0010058B12068C06800F00100C8
:1004300030B16FF0010021680861204600F036F805
:1004400020680069C0F3C01058B12068C068C0F3CC
:10045000C01030B16FF08000216808612046FFF7BE
:1004600055FF20680069C0F3801058B12068C0684B
:10047000C0F3801030B16FF0400021680861204661
:1004800000F019F820680069C0F3401058B12068E6
:10049000C068C0F3401030B16FF0200021680861DF
:1004A0002046FFF734FF10BD7047704710B5044673
:1004B000FFF724FF10BD704700BFFEE700BFFEE757
:1004C00070477047704710B5FFF718FF10BD000068
:1004D0001448006840F4700012490860124800682F
:1004E00040F001001049086000200F490831086001
:1004F0000D4800680D4908400B4908600C48091D6B
:100500000860081F006820F48020091F0860002090
:1005100005490C3108604FF00060024980390860DD
:100520007047000088ED00E000380240FFFFF6FE53
:100530001030002410B50248FFF7EBFE10BD00009C
:10054000D40000201C49096801F0200109B31A49B0
:100550004968C8B21949098801F40041C9B9174965
:10056000098801F4804161B10A2803D00021134AAF
:10057000118020E01149098841F400410F4A11809F
:1005800019E00D2806D10D49098841F480410B4A34
:10059000118010E009490988C1F30D01084A50543F
:1005A00006490988491C054A118011460988C7294E
:1005B00001DD00211180704700100140040000207F
:1005C0000C00002000BFFEE700BF704700BFFEE741
:1005D0004FF04070E1EE100A70470000FC05000883
:1005E000000000200C000000E801000808060008D8
:1005F0000C00002064070000040200080000000056
:080600000000000000000000F2
:04000005080001AD41
:00000001FF
